{
  "_format": "hh-sol-artifact-1",
  "contractName": "VerifyVoucher",
  "sourceName": "contracts/needModule/VerifyVoucher.sol",
  "abi": [
    {
      "inputs": [],
      "stateMutability": "nonpayable",
      "type": "constructor"
    },
    {
      "inputs": [
        {
          "components": [
            {
              "internalType": "uint256",
              "name": "needId",
              "type": "uint256"
            },
            {
              "internalType": "string",
              "name": "title",
              "type": "string"
            },
            {
              "internalType": "string",
              "name": "category",
              "type": "string"
            },
            {
              "internalType": "uint256",
              "name": "paid",
              "type": "uint256"
            },
            {
              "internalType": "string",
              "name": "deliveryCode",
              "type": "string"
            },
            {
              "internalType": "string",
              "name": "child",
              "type": "string"
            },
            {
              "internalType": "bytes",
              "name": "swSignature",
              "type": "bytes"
            },
            {
              "internalType": "string",
              "name": "role",
              "type": "string"
            },
            {
              "internalType": "string",
              "name": "content",
              "type": "string"
            }
          ],
          "internalType": "struct INeedStorage.initialVoucher",
          "name": "_voucher",
          "type": "tuple"
        }
      ],
      "name": "_verify",
      "outputs": [
        {
          "internalType": "address",
          "name": "",
          "type": "address"
        }
      ],
      "stateMutability": "view",
      "type": "function"
    },
    {
      "inputs": [],
      "name": "getChainID",
      "outputs": [
        {
          "internalType": "uint256",
          "name": "",
          "type": "uint256"
        }
      ],
      "stateMutability": "view",
      "type": "function"
    }
  ],
  "bytecode": "0x61014060405234801561001157600080fd5b5060408051808201825260078152665341592d44414f60c81b6020808301918252835180850190945260018452603160f81b908401528151902060e08190527fc89efdaa54c0f20c7adf612882df0950f5a951637e0307cdcb4c672f298b8bc66101008190524660a0529192917f8b73c3c69bb8fe3d512ecc4cf759cc79239f7b179b0ffacaa9a75d522b39400f6100ee8184846040805160208101859052908101839052606081018290524660808201523060a082015260009060c0016040516020818303038152906040528051906020012090509392505050565b6080523060c052610120525061010392505050565b60805160a05160c05160e05161010051610120516107986101526000396000610558015260006105a701526000610582015260006104db015260006105050152600061052f01526107986000f3fe608060405234801561001057600080fd5b50600436106100365760003560e01c80632a4d77371461003b578063564b81ef1461006b575b600080fd5b61004e6100493660046106b9565b610079565b6040516001600160a01b0390911681526020015b60405180910390f35b604051468152602001610062565b600061008582356100e4565b60006100908361012c565b90506100dd816100a360c08601866106f5565b8080601f01602080910402602001604051908101604052809392919081815260200183838082843760009201919091525061029992505050565b9392505050565b610129816040516024016100fa91815260200190565b60408051601f198184030181529190526020810180516001600160e01b031663f82c50f160e01b1790526102bd565b50565b60006102937f879a2da0e633cdda60fc9c89e94da079f111b4c997c144d4316e52c976073db7833561016160208601866106f5565b60405161016f92919061073c565b604051809103902085806040019061018791906106f5565b60405161019592919061073c565b60405190819003902060608701356101b060808901896106f5565b6040516101be92919061073c565b6040519081900390206101d460a08a018a6106f5565b6040516101e292919061073c565b6040519081900390206101f860e08b018b6106f5565b60405161020692919061073c565b60405190819003902061021d6101008c018c6106f5565b60405161022b92919061073c565b60408051918290038220602083019a909a528101979097526060870195909552608086019390935260a085019190915260c084015260e083015261010082015261012081019190915261014001604051602081830303815290604052805190602001206102c6565b92915050565b60008060006102a88585610314565b915091506102b58161035a565b509392505050565b610129816104ad565b60006102936102d36104ce565b8360405161190160f01b6020820152602281018390526042810182905260009060620160405160208183030381529060405280519060200120905092915050565b60008082516041141561034b5760208301516040840151606085015160001a61033f878285856105f5565b94509450505050610353565b506000905060025b9250929050565b600081600481111561036e5761036e61074c565b14156103775750565b600181600481111561038b5761038b61074c565b14156103de5760405162461bcd60e51b815260206004820152601860248201527f45434453413a20696e76616c6964207369676e6174757265000000000000000060448201526064015b60405180910390fd5b60028160048111156103f2576103f261074c565b14156104405760405162461bcd60e51b815260206004820152601f60248201527f45434453413a20696e76616c6964207369676e6174757265206c656e6774680060448201526064016103d5565b60038160048111156104545761045461074c565b14156101295760405162461bcd60e51b815260206004820152602260248201527f45434453413a20696e76616c6964207369676e6174757265202773272076616c604482015261756560f01b60648201526084016103d5565b60006a636f6e736f6c652e6c6f679050600080835160208501845afa505050565b6000306001600160a01b037f00000000000000000000000000000000000000000000000000000000000000001614801561052757507f000000000000000000000000000000000000000000000000000000000000000046145b1561055157507f000000000000000000000000000000000000000000000000000000000000000090565b50604080517f00000000000000000000000000000000000000000000000000000000000000006020808301919091527f0000000000000000000000000000000000000000000000000000000000000000828401527f000000000000000000000000000000000000000000000000000000000000000060608301524660808301523060a0808401919091528351808403909101815260c0909201909252805191012090565b6000807f7fffffffffffffffffffffffffffffff5d576e7357a4501ddfe92f46681b20a083111561062c57506000905060036106b0565b6040805160008082526020820180845289905260ff881692820192909252606081018690526080810185905260019060a0016020604051602081039080840390855afa158015610680573d6000803e3d6000fd5b5050604051601f1901519150506001600160a01b0381166106a9576000600192509250506106b0565b9150600090505b94509492505050565b6000602082840312156106cb57600080fd5b813567ffffffffffffffff8111156106e257600080fd5b820161012081850312156100dd57600080fd5b6000808335601e1984360301811261070c57600080fd5b83018035915067ffffffffffffffff82111561072757600080fd5b60200191503681900382131561035357600080fd5b8183823760009101908152919050565b634e487b7160e01b600052602160045260246000fdfea264697066735822122089faac79b7842f36dead168e7f7a47523a137c25cbf1c4c812a461ba2b704f6a64736f6c63430008090033",
  "linkReferences": {},
  "deployedLinkReferences": {}
}